{
  "contractName": "CANSign",
  "abi": [
    {
      "inputs": [],
      "payable": false,
      "stateMutability": "nonpayable",
      "type": "constructor"
    },
    {
      "constant": false,
      "inputs": [
        {
          "name": "_hash",
          "type": "uint256"
        },
        {
          "name": "_creator",
          "type": "address"
        },
        {
          "name": "_expirationDate",
          "type": "uint256"
        }
      ],
      "name": "addDocument",
      "outputs": [],
      "payable": false,
      "stateMutability": "nonpayable",
      "type": "function"
    },
    {
      "constant": true,
      "inputs": [
        {
          "name": "_hash",
          "type": "uint256"
        }
      ],
      "name": "getDocument",
      "outputs": [
        {
          "name": "",
          "type": "uint256"
        }
      ],
      "payable": false,
      "stateMutability": "view",
      "type": "function"
    }
  ],
  "bytecode": "0x6060604052341561000f57600080fd5b6101c58061001e6000396000f30060606040526004361061004c576000357c0100000000000000000000000000000000000000000000000000000000900463ffffffff1680633f9b250a146100515780636a731ba014610088575b600080fd5b341561005c57600080fd5b61007260048080359060200190919050506100d3565b6040518082815260200191505060405180910390f35b341561009357600080fd5b6100d1600480803590602001909190803573ffffffffffffffffffffffffffffffffffffffff169060200190919080359060200190919050506100f2565b005b6000806000838152602001908152602001600020600001549050919050565b6060604051908101604052808481526020018373ffffffffffffffffffffffffffffffffffffffff168152602001828152506000808581526020019081526020016000206000820151816000015560208201518160010160006101000a81548173ffffffffffffffffffffffffffffffffffffffff021916908373ffffffffffffffffffffffffffffffffffffffff160217905550604082015181600201559050505050505600a165627a7a72305820d16a0714ed87a99d89b58526812d6d7a344f91f5317eb5372da00bfbe2bafe610029",
  "source": "pragma solidity 0.4.19;\n\n\ncontract CANSign {\n    \n    struct Signer {\n        address signer;\n        uint256 name;\n        uint256 dateOfBirth;\n        uint256 signedAt;\n    }\n    \n    struct Document {\n        uint256 hash;\n        address creator;\n        uint256 expirationDate;\n        mapping (address => Signer) signers;\n    }\n    \n    mapping (uint256 => Document) documents;\n    \n    function CANSign() public {}\n    \n    function addDocument(uint256 _hash, address _creator, uint256 _expirationDate) public {\n        documents[_hash] = Document({\n            hash: _hash,\n            creator: _creator,\n            expirationDate: _expirationDate\n            });\n    }\n\n    function getDocument(uint256 _hash) view public returns (uint256) {\n        return documents[_hash].hash;\n    }\n    \n}\n\n\n\n\n\n\n\n\n\n\n",
  "sourcePath": "/Users/GustavoIbarra/Projects/Solidity/cansign-v1/contracts/CANSign.v1.sol",
  "compiler": {
    "name": "solc",
    "version": "0.4.19+commit.c4cbbb05.Emscripten.clang"
  },
  "schemaVersion": "2.0.0",
  "updatedAt": "2018-04-30T20:44:56.455Z"
}