{
  "contractName": "CANSign",
  "abi": [
    {
      "inputs": [],
      "payable": false,
      "stateMutability": "nonpayable",
      "type": "constructor"
    },
    {
      "constant": false,
      "inputs": [
        {
          "name": "_hash",
          "type": "string"
        },
        {
          "name": "_signers",
          "type": "address[]"
        }
      ],
      "name": "addDocument",
      "outputs": [],
      "payable": false,
      "stateMutability": "nonpayable",
      "type": "function"
    },
    {
      "constant": false,
      "inputs": [
        {
          "name": "_hash",
          "type": "string"
        },
        {
          "name": "_timestamp",
          "type": "uint256"
        }
      ],
      "name": "sign",
      "outputs": [],
      "payable": false,
      "stateMutability": "nonpayable",
      "type": "function"
    },
    {
      "constant": true,
      "inputs": [
        {
          "name": "_hash",
          "type": "string"
        }
      ],
      "name": "getDocumentSigners",
      "outputs": [
        {
          "name": "",
          "type": "address[]"
        }
      ],
      "payable": false,
      "stateMutability": "view",
      "type": "function"
    },
    {
      "constant": true,
      "inputs": [
        {
          "name": "_hash",
          "type": "string"
        }
      ],
      "name": "getDocumentId",
      "outputs": [
        {
          "name": "",
          "type": "string"
        }
      ],
      "payable": false,
      "stateMutability": "view",
      "type": "function"
    },
    {
      "constant": true,
      "inputs": [
        {
          "name": "_hash",
          "type": "string"
        }
      ],
      "name": "getDocumentCreator",
      "outputs": [
        {
          "name": "",
          "type": "address"
        }
      ],
      "payable": false,
      "stateMutability": "view",
      "type": "function"
    },
    {
      "constant": true,
      "inputs": [
        {
          "name": "_hash",
          "type": "string"
        },
        {
          "name": "_signer",
          "type": "address"
        }
      ],
      "name": "getSignerEmail",
      "outputs": [
        {
          "name": "",
          "type": "string"
        }
      ],
      "payable": false,
      "stateMutability": "view",
      "type": "function"
    },
    {
      "constant": true,
      "inputs": [
        {
          "name": "_hash",
          "type": "string"
        },
        {
          "name": "_signer",
          "type": "address"
        }
      ],
      "name": "getSignerName",
      "outputs": [
        {
          "name": "",
          "type": "string"
        }
      ],
      "payable": false,
      "stateMutability": "view",
      "type": "function"
    },
    {
      "constant": true,
      "inputs": [
        {
          "name": "_hash",
          "type": "string"
        },
        {
          "name": "_signer",
          "type": "address"
        }
      ],
      "name": "getSignerStatus",
      "outputs": [
        {
          "name": "",
          "type": "string"
        }
      ],
      "payable": false,
      "stateMutability": "view",
      "type": "function"
    },
    {
      "constant": true,
      "inputs": [
        {
          "name": "_hash",
          "type": "string"
        },
        {
          "name": "_signer",
          "type": "address"
        }
      ],
      "name": "getSignerTimestamp",
      "outputs": [
        {
          "name": "",
          "type": "uint256"
        }
      ],
      "payable": false,
      "stateMutability": "view",
      "type": "function"
    },
    {
      "constant": true,
      "inputs": [
        {
          "name": "_hash",
          "type": "string"
        },
        {
          "name": "_signer",
          "type": "address"
        }
      ],
      "name": "getSignerBlockNumber",
      "outputs": [
        {
          "name": "",
          "type": "uint256"
        }
      ],
      "payable": false,
      "stateMutability": "view",
      "type": "function"
    }
  ],
  "bytecode": "0x6060604052341561000f57600080fd5b6119538061001e6000396000f3006060604052600436106100a4576000357c0100000000000000000000000000000000000000000000000000000000900463ffffffff1680630d3873ba146100a95780631782f5321461019e5780632042d7251461029357806364ad3a45146102f95780636cddd91214610389578063791b63ab14610426578063c2818fe1146104fc578063c7d599ae1461058c578063d2c0448014610629578063ea4d3a401461071e575b600080fd5b34156100b457600080fd5b610123600480803590602001908201803590602001908080601f0160208091040260200160405190810160405280939291908181526020018383808284378201915050505050509190803573ffffffffffffffffffffffffffffffffffffffff169060200190919050506107d0565b6040518080602001828103825283818151815260200191508051906020019080838360005b83811015610163578082015181840152602081019050610148565b50505050905090810190601f1680156101905780820380516001836020036101000a031916815260200191505b509250505060405180910390f35b34156101a957600080fd5b610218600480803590602001908201803590602001908080601f0160208091040260200160405190810160405280939291908181526020018383808284378201915050505050509190803573ffffffffffffffffffffffffffffffffffffffff16906020019091905050610927565b6040518080602001828103825283818151815260200191508051906020019080838360005b8381101561025857808201518184015260208101905061023d565b50505050905090810190601f1680156102855780820380516001836020036101000a031916815260200191505b509250505060405180910390f35b341561029e57600080fd5b6102f7600480803590602001908201803590602001908080601f01602080910402602001604051908101604052809392919081815260200183838082843782019150505050505091908035906020019091905050610a7e565b005b341561030457600080fd5b610373600480803590602001908201803590602001908080601f0160208091040260200160405190810160405280939291908181526020018383808284378201915050505050509190803573ffffffffffffffffffffffffffffffffffffffff16906020019091905050610f0e565b6040518082815260200191505060405180910390f35b341561039457600080fd5b610424600480803590602001908201803590602001908080601f0160208091040260200160405190810160405280939291908181526020018383808284378201915050505050509190803590602001908201803590602001908080602002602001604051908101604052809392919081815260200183836020028082843782019150505050505091905050610fc6565b005b341561043157600080fd5b610481600480803590602001908201803590602001908080601f0160208091040260200160405190810160405280939291908181526020018383808284378201915050505050509190505061117d565b6040518080602001828103825283818151815260200191508051906020019080838360005b838110156104c15780820151818401526020810190506104a6565b50505050905090810190601f1680156104ee5780820380516001836020036101000a031916815260200191505b509250505060405180910390f35b341561050757600080fd5b610576600480803590602001908201803590602001908080601f0160208091040260200160405190810160405280939291908181526020018383808284378201915050505050509190803573ffffffffffffffffffffffffffffffffffffffff16906020019091905050611293565b6040518082815260200191505060405180910390f35b341561059757600080fd5b6105e7600480803590602001908201803590602001908080601f0160208091040260200160405190810160405280939291908181526020018383808284378201915050505050509190505061134b565b604051808273ffffffffffffffffffffffffffffffffffffffff1673ffffffffffffffffffffffffffffffffffffffff16815260200191505060405180910390f35b341561063457600080fd5b6106a3600480803590602001908201803590602001908080601f0160208091040260200160405190810160405280939291908181526020018383808284378201915050505050509190803573ffffffffffffffffffffffffffffffffffffffff169060200190919050506113e2565b6040518080602001828103825283818151815260200191508051906020019080838360005b838110156106e35780820151818401526020810190506106c8565b50505050905090810190601f1680156107105780820380516001836020036101000a031916815260200191505b509250505060405180910390f35b341561072957600080fd5b610779600480803590602001908201803590602001908080601f01602080910402602001604051908101604052809392919081815260200183838082843782019150505050505091905050611539565b6040518080602001828103825283818151815260200191508051906020019060200280838360005b838110156107bc5780820151818401526020810190506107a1565b505050509050019250505060405180910390f35b6107d861163b565b6000836040518082805190602001908083835b60208310151561081057805182526020820191506020810190506020830392506107eb565b6001836020036101000a038019825116818451168082178552505050505050905001915050908152602001604051809103902060030160008373ffffffffffffffffffffffffffffffffffffffff1673ffffffffffffffffffffffffffffffffffffffff1681526020019081526020016000206004018054600181600116156101000203166002900480601f01602080910402602001604051908101604052809291908181526020018280546001816001161561010002031660029004801561091a5780601f106108ef5761010080835404028352916020019161091a565b820191906000526020600020905b8154815290600101906020018083116108fd57829003601f168201915b5050505050905092915050565b61092f61163b565b6000836040518082805190602001908083835b6020831015156109675780518252602082019150602081019050602083039250610942565b6001836020036101000a038019825116818451168082178552505050505050905001915050908152602001604051809103902060030160008373ffffffffffffffffffffffffffffffffffffffff1673ffffffffffffffffffffffffffffffffffffffff1681526020019081526020016000206005018054600181600116156101000203166002900480601f016020809104026020016040519081016040528092919081815260200182805460018160011615610100020316600290048015610a715780601f10610a4657610100808354040283529160200191610a71565b820191906000526020600020905b815481529060010190602001808311610a5457829003601f168201915b5050505050905092915050565b610a8661164f565b82610a8f6116b5565b610a976116f9565b600080600080866040518082805190602001908083835b602083101515610ad35780518252602082019150602081019050602083039250610aae565b6001836020036101000a038019825116818451168082178552505050505050905001915050908152602001604051809103902060606040519081016040529081600082018054600181600116156101000203166002900480601f016020809104026020016040519081016040528092919081815260200182805460018160011615610100020316600290048015610bab5780601f10610b8057610100808354040283529160200191610bab565b820191906000526020600020905b815481529060010190602001808311610b8e57829003601f168201915b505050505081526020016001820160009054906101000a900473ffffffffffffffffffffffffffffffffffffffff1673ffffffffffffffffffffffffffffffffffffffff1673ffffffffffffffffffffffffffffffffffffffff16815260200160028201805480602002602001604051908101604052809291908181526020018280548015610c8f57602002820191906000526020600020905b8160009054906101000a900473ffffffffffffffffffffffffffffffffffffffff1673ffffffffffffffffffffffffffffffffffffffff1681526020019060010190808311610c45575b50505050508152505094508460400151935083519250600091505b82821015610f03578382815181101515610cc057fe5b9060200190602002015190503373ffffffffffffffffffffffffffffffffffffffff168173ffffffffffffffffffffffffffffffffffffffff161415610ef65787876020018181525050438760400181815250506040805190810160405280600681526020017f7369676e65640000000000000000000000000000000000000000000000000000815250876080018190525033876000019073ffffffffffffffffffffffffffffffffffffffff16908173ffffffffffffffffffffffffffffffffffffffff16815250508660008a6040518082805190602001908083835b602083101515610dc35780518252602082019150602081019050602083039250610d9e565b6001836020036101000a038019825116818451168082178552505050505050905001915050908152602001604051809103902060030160003373ffffffffffffffffffffffffffffffffffffffff1673ffffffffffffffffffffffffffffffffffffffff16815260200190815260200160002060008201518160000160006101000a81548173ffffffffffffffffffffffffffffffffffffffff021916908373ffffffffffffffffffffffffffffffffffffffff1602179055506020820151816001015560408201518160020155606082015181600301556080820151816004019080519060200190610eb792919061170d565b5060a0820151816005019080519060200190610ed492919061170d565b5060c0820151816006019080519060200190610ef192919061170d565b509050505b8180600101925050610caa565b505050505050505050565b600080836040518082805190602001908083835b602083101515610f475780518252602082019150602081019050602083039250610f22565b6001836020036101000a038019825116818451168082178552505050505050905001915050908152602001604051809103902060030160008373ffffffffffffffffffffffffffffffffffffffff1673ffffffffffffffffffffffffffffffffffffffff16815260200190815260200160002060010154905092915050565b816000836040518082805190602001908083835b602083101515610fff5780518252602082019150602081019050602083039250610fda565b6001836020036101000a0380198251168184511680821785525050505050509050019150509081526020016040518091039020600001908051906020019061104892919061178d565b50336000836040518082805190602001908083835b602083101515611082578051825260208201915060208101905060208303925061105d565b6001836020036101000a038019825116818451168082178552505050505050905001915050908152602001604051809103902060010160006101000a81548173ffffffffffffffffffffffffffffffffffffffff021916908373ffffffffffffffffffffffffffffffffffffffff160217905550806000836040518082805190602001908083835b60208310151561112f578051825260208201915060208101905060208303925061110a565b6001836020036101000a0380198251168184511680821785525050505050509050019150509081526020016040518091039020600201908051906020019061117892919061180d565b505050565b61118561163b565b6000826040518082805190602001908083835b6020831015156111bd5780518252602082019150602081019050602083039250611198565b6001836020036101000a03801982511681845116808217855250505050505090500191505090815260200160405180910390206000018054600181600116156101000203166002900480601f0160208091040260200160405190810160405280929190818152602001828054600181600116156101000203166002900480156112875780601f1061125c57610100808354040283529160200191611287565b820191906000526020600020905b81548152906001019060200180831161126a57829003601f168201915b50505050509050919050565b600080836040518082805190602001908083835b6020831015156112cc57805182526020820191506020810190506020830392506112a7565b6001836020036101000a038019825116818451168082178552505050505050905001915050908152602001604051809103902060030160008373ffffffffffffffffffffffffffffffffffffffff1673ffffffffffffffffffffffffffffffffffffffff16815260200190815260200160002060020154905092915050565b600080826040518082805190602001908083835b602083101515611384578051825260208201915060208101905060208303925061135f565b6001836020036101000a038019825116818451168082178552505050505050905001915050908152602001604051809103902060010160009054906101000a900473ffffffffffffffffffffffffffffffffffffffff169050919050565b6113ea61163b565b6000836040518082805190602001908083835b60208310151561142257805182526020820191506020810190506020830392506113fd565b6001836020036101000a038019825116818451168082178552505050505050905001915050908152602001604051809103902060030160008373ffffffffffffffffffffffffffffffffffffffff1673ffffffffffffffffffffffffffffffffffffffff1681526020019081526020016000206006018054600181600116156101000203166002900480601f01602080910402602001604051908101604052809291908181526020018280546001816001161561010002031660029004801561152c5780601f106115015761010080835404028352916020019161152c565b820191906000526020600020905b81548152906001019060200180831161150f57829003601f168201915b5050505050905092915050565b6115416116f9565b6000826040518082805190602001908083835b6020831015156115795780518252602082019150602081019050602083039250611554565b6001836020036101000a038019825116818451168082178552505050505050905001915050908152602001604051809103902060020180548060200260200160405190810160405280929190818152602001828054801561162f57602002820191906000526020600020905b8160009054906101000a900473ffffffffffffffffffffffffffffffffffffffff1673ffffffffffffffffffffffffffffffffffffffff16815260200190600101908083116115e5575b50505050509050919050565b602060405190810160405280600081525090565b60e060405190810160405280600073ffffffffffffffffffffffffffffffffffffffff168152602001600081526020016000815260200160008152602001611695611897565b81526020016116a2611897565b81526020016116af611897565b81525090565b6060604051908101604052806116c9611897565b8152602001600073ffffffffffffffffffffffffffffffffffffffff1681526020016116f36118ab565b81525090565b602060405190810160405280600081525090565b828054600181600116156101000203166002900490600052602060002090601f016020900481019282601f1061174e57805160ff191683800117855561177c565b8280016001018555821561177c579182015b8281111561177b578251825591602001919060010190611760565b5b50905061178991906118bf565b5090565b828054600181600116156101000203166002900490600052602060002090601f016020900481019282601f106117ce57805160ff19168380011785556117fc565b828001600101855582156117fc579182015b828111156117fb5782518255916020019190600101906117e0565b5b50905061180991906118bf565b5090565b828054828255906000526020600020908101928215611886579160200282015b828111156118855782518260006101000a81548173ffffffffffffffffffffffffffffffffffffffff021916908373ffffffffffffffffffffffffffffffffffffffff1602179055509160200191906001019061182d565b5b50905061189391906118e4565b5090565b602060405190810160405280600081525090565b602060405190810160405280600081525090565b6118e191905b808211156118dd5760008160009055506001016118c5565b5090565b90565b61192491905b8082111561192057600081816101000a81549073ffffffffffffffffffffffffffffffffffffffff0219169055506001016118ea565b5090565b905600a165627a7a723058203c3fa15045d299e3ccafd8796632102f88604773a82d2f733a377c6024e9c6270029",
  "source": "pragma solidity 0.4.19;\n\ncontract CANSign {\n    \n    struct Signer {\n        address _address;\n        uint256 timestamp;\n        uint256 blockNumber;\n        uint256 dateOfBirth;\n        string status;\n        string name;\n        string email;\n    }\n    \n    struct Document {\n        string hash;\n        address creator;\n        address[] _signers;\n        mapping (address => Signer) signers;\n    }\n    \n    mapping (string => Document) documents;\n\n\n    modifier signerExists(string _hash) {\n        Document memory document = documents[_hash];\n\n        address[] memory _signers = document._signers;\n\n        uint arrayLength = _signers.length;\n        \n        for (uint i = 0; i < arrayLength; i++) {\n            address signerAddress = _signers[i];\n\n            if (signerAddress == msg.sender) {\n                _;\n            }\n        }\n    }\n\n    \n    function CANSign() public {}\n    \n    function addDocument(\n        string _hash, \n        address[] _signers) public {\n\n        documents[_hash].hash = _hash;\n        documents[_hash].creator = msg.sender;\n        documents[_hash]._signers = _signers;\n    }\n\n    function sign(string _hash, uint256 _timestamp) public signerExists(_hash) {\n        Signer memory signer;\n\n        signer.timestamp = _timestamp;\n\n        signer.blockNumber = block.number;\n\n        signer.status = 'signed';\n\n        signer._address = msg.sender;\n\n        documents[_hash].signers[msg.sender] = signer;\n    }\n\n    function getDocumentSigners(string _hash) view public returns (address[]) {\n        return documents[_hash]._signers;\n    }\n\n    function getDocumentId(string _hash) view public returns (string) {\n        return documents[_hash].hash;\n    }\n\n    function getDocumentCreator(string _hash) view public returns (address) {\n        return documents[_hash].creator;\n    }\n\n    function getSignerEmail(string _hash, address _signer) view public returns (string) {\n        return documents[_hash].signers[_signer].email;\n    }\n\n    function getSignerName(string _hash, address _signer) view public returns (string) {\n        return documents[_hash].signers[_signer].name;\n    }\n\n    function getSignerStatus(string _hash, address _signer) view public returns (string) {\n        return documents[_hash].signers[_signer].status;\n    }\n\n    function getSignerTimestamp(string _hash, address _signer) view public returns (uint256) {\n        return documents[_hash].signers[_signer].timestamp;\n    }\n\n    function getSignerBlockNumber(string _hash, address _signer) view public returns (uint256) {\n        return documents[_hash].signers[_signer].blockNumber;\n    }\n}\n",
  "sourcePath": "/Users/GustavoIbarra/Projects/Solidity/cansign-v1/contracts/CANSign.v2.sol",
  "compiler": {
    "name": "solc",
    "version": "0.4.19+commit.c4cbbb05.Emscripten.clang"
  },
  "schemaVersion": "2.0.0",
  "updatedAt": "2018-06-07T20:36:11.249Z"
}